{
  "contractName": "Election",
  "abi": [
    {
      "inputs": [],
      "stateMutability": "nonpayable",
      "type": "constructor"
    },
    {
      "inputs": [],
      "name": "candidate",
      "outputs": [
        {
          "internalType": "string",
          "name": "",
          "type": "string"
        }
      ],
      "stateMutability": "view",
      "type": "function",
      "constant": true
    },
    {
      "inputs": [],
      "name": "candidateCount",
      "outputs": [
        {
          "internalType": "uint256",
          "name": "",
          "type": "uint256"
        }
      ],
      "stateMutability": "view",
      "type": "function",
      "constant": true
    },
    {
      "inputs": [
        {
          "internalType": "uint256",
          "name": "",
          "type": "uint256"
        }
      ],
      "name": "candidateList",
      "outputs": [
        {
          "internalType": "uint256",
          "name": "id",
          "type": "uint256"
        },
        {
          "internalType": "string",
          "name": "name",
          "type": "string"
        },
        {
          "internalType": "uint256",
          "name": "voteCount",
          "type": "uint256"
        }
      ],
      "stateMutability": "view",
      "type": "function",
      "constant": true
    },
    {
      "inputs": [
        {
          "internalType": "address",
          "name": "",
          "type": "address"
        }
      ],
      "name": "votersList",
      "outputs": [
        {
          "internalType": "bool",
          "name": "",
          "type": "bool"
        }
      ],
      "stateMutability": "view",
      "type": "function",
      "constant": true
    },
    {
      "inputs": [
        {
          "internalType": "uint256",
          "name": "_candidateID",
          "type": "uint256"
        }
      ],
      "name": "vote",
      "outputs": [],
      "stateMutability": "nonpayable",
      "type": "function"
    }
  ],
  "bytecode": "0x60806040523480156200001157600080fd5b50620000586040518060400160405280600d81526020017f4e6172656e647261204d6f646900000000000000000000000000000000000000815250620000a460201b60201c565b6200009e6040518060400160405280600c81526020017f526168756c2047616e6468690000000000000000000000000000000000000000815250620000a460201b60201c565b62000500565b60016000815480929190620000b9906200015c565b919050555060405180606001604052806001548152602001828152602001600081525060036000600154815260200190815260200160002060008201518160000155602082015181600101908162000112919062000419565b506040820151816002015590505050565b7f4e487b7100000000000000000000000000000000000000000000000000000000600052601160045260246000fd5b6000819050919050565b6000620001698262000152565b91507fffffffffffffffffffffffffffffffffffffffffffffffffffffffffffffffff82036200019e576200019d62000123565b5b600182019050919050565b600081519050919050565b7f4e487b7100000000000000000000000000000000000000000000000000000000600052604160045260246000fd5b7f4e487b7100000000000000000000000000000000000000000000000000000000600052602260045260246000fd5b600060028204905060018216806200022b57607f821691505b602082108103620002415762000240620001e3565b5b50919050565b60008190508160005260206000209050919050565b60006020601f8301049050919050565b600082821b905092915050565b600060088302620002ab7fffffffffffffffffffffffffffffffffffffffffffffffffffffffffffffffff826200026c565b620002b786836200026c565b95508019841693508086168417925050509392505050565b6000819050919050565b6000620002fa620002f4620002ee8462000152565b620002cf565b62000152565b9050919050565b6000819050919050565b6200031683620002d9565b6200032e620003258262000301565b84845462000279565b825550505050565b600090565b6200034562000336565b620003528184846200030b565b505050565b5b818110156200037a576200036e6000826200033b565b60018101905062000358565b5050565b601f821115620003c957620003938162000247565b6200039e846200025c565b81016020851015620003ae578190505b620003c6620003bd856200025c565b83018262000357565b50505b505050565b600082821c905092915050565b6000620003ee60001984600802620003ce565b1980831691505092915050565b6000620004098383620003db565b9150826002028217905092915050565b6200042482620001a9565b67ffffffffffffffff81111562000440576200043f620001b4565b5b6200044c825462000212565b620004598282856200037e565b600060209050601f8311600181146200049157600084156200047c578287015190505b620004888582620003fb565b865550620004f8565b601f198416620004a18662000247565b60005b82811015620004cb57848901518255600182019150602085019450602081019050620004a4565b86831015620004eb5784890151620004e7601f891682620003db565b8355505b6001600288020188555050505b505050505050565b6106c580620005106000396000f3fe608060405234801561001057600080fd5b50600436106100575760003560e01c80630121b93f1461005c578063443019fe146100785780636c8381f8146100a8578063a9a981a3146100c6578063b13c744b146100e4575b600080fd5b610076600480360381019061007191906103b0565b610116565b005b610092600480360381019061008d919061043b565b61020f565b60405161009f9190610483565b60405180910390f35b6100b061022f565b6040516100bd919061052e565b60405180910390f35b6100ce6102bd565b6040516100db919061055f565b60405180910390f35b6100fe60048036038101906100f991906103b0565b6102c3565b60405161010d9392919061057a565b60405180910390f35b600260003373ffffffffffffffffffffffffffffffffffffffff1673ffffffffffffffffffffffffffffffffffffffff16815260200190815260200160002060009054906101000a900460ff161561016d57600080fd5b60008111801561017f57506001548111155b61018857600080fd5b6001600260003373ffffffffffffffffffffffffffffffffffffffff1673ffffffffffffffffffffffffffffffffffffffff16815260200190815260200160002060006101000a81548160ff021916908315150217905550600360008281526020019081526020016000206002016000815480929190610207906105e7565b919050555050565b60026020528060005260406000206000915054906101000a900460ff1681565b6000805461023c9061065e565b80601f01602080910402602001604051908101604052809291908181526020018280546102689061065e565b80156102b55780601f1061028a576101008083540402835291602001916102b5565b820191906000526020600020905b81548152906001019060200180831161029857829003601f168201915b505050505081565b60015481565b60036020528060005260406000206000915090508060000154908060010180546102ec9061065e565b80601f01602080910402602001604051908101604052809291908181526020018280546103189061065e565b80156103655780601f1061033a57610100808354040283529160200191610365565b820191906000526020600020905b81548152906001019060200180831161034857829003601f168201915b5050505050908060020154905083565b600080fd5b6000819050919050565b61038d8161037a565b811461039857600080fd5b50565b6000813590506103aa81610384565b92915050565b6000602082840312156103c6576103c5610375565b5b60006103d48482850161039b565b91505092915050565b600073ffffffffffffffffffffffffffffffffffffffff82169050919050565b6000610408826103dd565b9050919050565b610418816103fd565b811461042357600080fd5b50565b6000813590506104358161040f565b92915050565b60006020828403121561045157610450610375565b5b600061045f84828501610426565b91505092915050565b60008115159050919050565b61047d81610468565b82525050565b60006020820190506104986000830184610474565b92915050565b600081519050919050565b600082825260208201905092915050565b60005b838110156104d85780820151818401526020810190506104bd565b60008484015250505050565b6000601f19601f8301169050919050565b60006105008261049e565b61050a81856104a9565b935061051a8185602086016104ba565b610523816104e4565b840191505092915050565b6000602082019050818103600083015261054881846104f5565b905092915050565b6105598161037a565b82525050565b60006020820190506105746000830184610550565b92915050565b600060608201905061058f6000830186610550565b81810360208301526105a181856104f5565b90506105b06040830184610550565b949350505050565b7f4e487b7100000000000000000000000000000000000000000000000000000000600052601160045260246000fd5b60006105f28261037a565b91507fffffffffffffffffffffffffffffffffffffffffffffffffffffffffffffffff8203610624576106236105b8565b5b600182019050919050565b7f4e487b7100000000000000000000000000000000000000000000000000000000600052602260045260246000fd5b6000600282049050600182168061067657607f821691505b6020821081036106895761068861062f565b5b5091905056fea2646970667358221220e9a8c594df792c728a9895b4372d87ca64de0aab5099e99a68c05e5f941593e564736f6c63430008110033",
  "immutableReferences": {},
  "source": "pragma solidity 0.8.17;\r\n\r\ncontract Election\r\n{\r\n\t\r\n\tstruct Candidate\t\t\t\t\t\t\t\t\t\t//Candidate structure\r\n\t{\r\n\t\tuint id;\r\n\t\tstring name;\r\n\t\tuint voteCount;\r\n\t}\r\n\r\n\tstring public candidate;\r\n\r\n\tuint public candidateCount;\t\t\t\t\t\t\t//G.etter function declared automatically to access candidate count\r\n\r\n\r\n\t\r\n\tmapping(address => bool) public votersList;\t\t\t\t\t//List to store voters that have voted with a getter function\r\n\t\r\n\tmapping(uint => Candidate) public candidateList;\t\t\t//Getter function automatically declared to access candidates\r\n\r\n\t/*\r\n\tevent votedEvent\r\n\t(\r\n\t\tuint indexed _candidateID \r\n\t);\r\n\t*/\r\n\r\n\t\r\n\tconstructor () public\t\t\t\t\t\t\t\t\t\t\t//constructor\r\n\t{\r\n\t\taddCandidate(\"Narendra Modi\");\r\n\t\taddCandidate(\"Rahul Gandhi\");\r\n\t}\r\n\r\n\tfunction addCandidate (string memory _name) private\t\t\t//Function to add candidates\r\n\t{\r\n\t\tcandidateCount ++;\r\n\t\tcandidateList[candidateCount] = Candidate(candidateCount, _name, 0);\r\n\t}\r\n\r\n\tfunction vote (uint _candidateID) public\t\t\t\t//Increase vote of candidate by one\r\n\t{\r\n\t\t\r\n\r\n\t\trequire(!votersList[msg.sender]);\t\t\t\t\t\t\t\t//Verify they havent voted before\r\n\t\trequire(_candidateID > 0 && _candidateID <= candidateCount);\t//Check if the candidate is valid\r\n\t\t\r\n\t\t\r\n\r\n\t\tvotersList[msg.sender] = true;\t\t\t\t\t\t//Set the voters address to true\r\n\r\n\t\tcandidateList[_candidateID].voteCount ++;\r\n\r\n\t\t//votedEvent(_candidateID);\t\t\t\t\t\t\t//Trigger event after voting to refresh the page\r\n\t}\r\n}",
  "sourcePath": "C:\\Users\\riyan\\Voting-dApp\\contracts\\Election.sol",
  "compiler": {
    "name": "solc",
    "version": "0.8.17+commit.8df45f5f.Emscripten.clang"
  },
  "schemaVersion": "3.4.10",
  "updatedAt": "2022-10-23T19:06:18.080Z",
  "networkType": "ethereum",
  "devdoc": {
    "kind": "dev",
    "methods": {},
    "version": 1
  },
  "userdoc": {
    "kind": "user",
    "methods": {},
    "version": 1
  }
}